{
  "_format": "hh-sol-artifact-1",
  "contractName": "DrugLedger",
  "sourceName": "contracts/DrugLedger.sol",
  "abi": [
    {
      "inputs": [],
      "stateMutability": "nonpayable",
      "type": "constructor"
    },
    {
      "anonymous": false,
      "inputs": [
        {
          "indexed": true,
          "internalType": "uint256",
          "name": "drugId",
          "type": "uint256"
        },
        {
          "indexed": true,
          "internalType": "uint256",
          "name": "issueId",
          "type": "uint256"
        },
        {
          "indexed": false,
          "internalType": "string",
          "name": "reason",
          "type": "string"
        }
      ],
      "name": "IssueClosed",
      "type": "event"
    },
    {
      "anonymous": false,
      "inputs": [
        {
          "indexed": true,
          "internalType": "uint256",
          "name": "drugId",
          "type": "uint256"
        },
        {
          "indexed": true,
          "internalType": "uint256",
          "name": "issueId",
          "type": "uint256"
        },
        {
          "indexed": false,
          "internalType": "string",
          "name": "name",
          "type": "string"
        },
        {
          "indexed": false,
          "internalType": "string",
          "name": "description",
          "type": "string"
        }
      ],
      "name": "IssueOpened",
      "type": "event"
    },
    {
      "anonymous": false,
      "inputs": [
        {
          "indexed": true,
          "internalType": "uint256",
          "name": "drugId",
          "type": "uint256"
        },
        {
          "indexed": false,
          "internalType": "string",
          "name": "entity",
          "type": "string"
        },
        {
          "indexed": false,
          "internalType": "string",
          "name": "action",
          "type": "string"
        },
        {
          "indexed": false,
          "internalType": "address",
          "name": "from",
          "type": "address"
        }
      ],
      "name": "Log",
      "type": "event"
    },
    {
      "anonymous": false,
      "inputs": [
        {
          "indexed": true,
          "internalType": "string",
          "name": "name",
          "type": "string"
        },
        {
          "indexed": true,
          "internalType": "string",
          "name": "license",
          "type": "string"
        }
      ],
      "name": "ManufacturerRevoked",
      "type": "event"
    },
    {
      "anonymous": false,
      "inputs": [
        {
          "indexed": true,
          "internalType": "uint256",
          "name": "drugId",
          "type": "uint256"
        },
        {
          "indexed": true,
          "internalType": "string",
          "name": "manufacturer",
          "type": "string"
        }
      ],
      "name": "RegisteredDrug",
      "type": "event"
    },
    {
      "anonymous": false,
      "inputs": [
        {
          "indexed": true,
          "internalType": "string",
          "name": "name",
          "type": "string"
        }
      ],
      "name": "RegisteredManufacturer",
      "type": "event"
    },
    {
      "inputs": [
        {
          "internalType": "uint256",
          "name": "_drugId",
          "type": "uint256"
        },
        {
          "internalType": "string",
          "name": "_entity",
          "type": "string"
        },
        {
          "internalType": "string",
          "name": "_action",
          "type": "string"
        }
      ],
      "name": "addLog",
      "outputs": [],
      "stateMutability": "nonpayable",
      "type": "function"
    },
    {
      "inputs": [
        {
          "internalType": "uint256",
          "name": "_drugId",
          "type": "uint256"
        },
        {
          "internalType": "uint256",
          "name": "_issueId",
          "type": "uint256"
        },
        {
          "internalType": "string",
          "name": "_reason",
          "type": "string"
        }
      ],
      "name": "closeIssue",
      "outputs": [],
      "stateMutability": "nonpayable",
      "type": "function"
    },
    {
      "inputs": [
        {
          "internalType": "address",
          "name": "addr",
          "type": "address"
        }
      ],
      "name": "getManufacturer",
      "outputs": [
        {
          "components": [
            {
              "internalType": "string",
              "name": "name",
              "type": "string"
            },
            {
              "internalType": "string",
              "name": "license",
              "type": "string"
            }
          ],
          "internalType": "struct Manufacturer",
          "name": "",
          "type": "tuple"
        }
      ],
      "stateMutability": "view",
      "type": "function"
    },
    {
      "inputs": [],
      "name": "id",
      "outputs": [
        {
          "internalType": "uint256",
          "name": "",
          "type": "uint256"
        }
      ],
      "stateMutability": "view",
      "type": "function"
    },
    {
      "inputs": [
        {
          "internalType": "uint256",
          "name": "_drugId",
          "type": "uint256"
        },
        {
          "internalType": "string",
          "name": "_name",
          "type": "string"
        },
        {
          "internalType": "string",
          "name": "_description",
          "type": "string"
        }
      ],
      "name": "openIssue",
      "outputs": [],
      "stateMutability": "nonpayable",
      "type": "function"
    },
    {
      "inputs": [
        {
          "internalType": "address",
          "name": "_addr",
          "type": "address"
        },
        {
          "internalType": "string",
          "name": "_name",
          "type": "string"
        },
        {
          "internalType": "string",
          "name": "_license",
          "type": "string"
        }
      ],
      "name": "register",
      "outputs": [],
      "stateMutability": "nonpayable",
      "type": "function"
    },
    {
      "inputs": [
        {
          "internalType": "string",
          "name": "cid",
          "type": "string"
        }
      ],
      "name": "registerDrug",
      "outputs": [
        {
          "internalType": "uint256",
          "name": "",
          "type": "uint256"
        }
      ],
      "stateMutability": "nonpayable",
      "type": "function"
    },
    {
      "inputs": [
        {
          "internalType": "uint256",
          "name": "_id",
          "type": "uint256"
        }
      ],
      "name": "retrieve",
      "outputs": [
        {
          "components": [
            {
              "internalType": "string",
              "name": "cid",
              "type": "string"
            },
            {
              "internalType": "address",
              "name": "manufacturer",
              "type": "address"
            },
            {
              "components": [
                {
                  "internalType": "string",
                  "name": "name",
                  "type": "string"
                },
                {
                  "internalType": "string",
                  "name": "description",
                  "type": "string"
                },
                {
                  "internalType": "uint256",
                  "name": "date",
                  "type": "uint256"
                },
                {
                  "internalType": "address",
                  "name": "owner",
                  "type": "address"
                },
                {
                  "internalType": "bool",
                  "name": "resolved",
                  "type": "bool"
                },
                {
                  "internalType": "string",
                  "name": "reason",
                  "type": "string"
                }
              ],
              "internalType": "struct Issue[]",
              "name": "issues",
              "type": "tuple[]"
            }
          ],
          "internalType": "struct Drug",
          "name": "",
          "type": "tuple"
        }
      ],
      "stateMutability": "view",
      "type": "function"
    },
    {
      "inputs": [
        {
          "internalType": "address",
          "name": "_addr",
          "type": "address"
        }
      ],
      "name": "revoke",
      "outputs": [],
      "stateMutability": "nonpayable",
      "type": "function"
    },
    {
      "inputs": [
        {
          "internalType": "uint256",
          "name": "_drugId",
          "type": "uint256"
        }
      ],
      "name": "verify",
      "outputs": [
        {
          "internalType": "bool",
          "name": "",
          "type": "bool"
        }
      ],
      "stateMutability": "view",
      "type": "function"
    }
  ],
  "bytecode": "0x60a060405234801561001057600080fd5b503373ffffffffffffffffffffffffffffffffffffffff1660808173ffffffffffffffffffffffffffffffffffffffff168152505060805161217e6100676000396000818161057b0152610903015261217e6000f3fe608060405234801561001057600080fd5b506004361061009e5760003560e01c80638d59cc02116100665780638d59cc02146101575780638f88708b146101735780639e85f603146101a3578063af640d0f146101bf578063df24d347146101dd5761009e565b8063191bcef6146100a35780633227dab1146100d357806337834d5c146100ef57806374a8f1031461010b5780638753367f14610127575b600080fd5b6100bd60048036038101906100b891906113ae565b61020d565b6040516100ca91906114af565b60405180910390f35b6100ed60048036038101906100e8919061163c565b61038a565b005b6101096004803603810190610104919061163c565b6103cb565b005b610125600480360381019061012091906113ae565b610579565b005b610141600480360381019061013c91906116c7565b610864565b60405161014e919061170f565b60405180910390f35b610171600480360381019061016c919061172a565b610901565b005b61018d600480360381019061018891906116c7565b610aea565b60405161019a9190611992565b60405180910390f35b6101bd60048036038101906101b891906119b4565b610e8f565b005b6101c761102d565b6040516101d49190611a32565b60405180910390f35b6101f760048036038101906101f29190611a4d565b611033565b6040516102049190611a32565b60405180910390f35b61021561128e565b600160008373ffffffffffffffffffffffffffffffffffffffff1673ffffffffffffffffffffffffffffffffffffffff16815260200190815260200160002060405180604001604052908160008201805461026f90611ac5565b80601f016020809104026020016040519081016040528092919081815260200182805461029b90611ac5565b80156102e85780601f106102bd576101008083540402835291602001916102e8565b820191906000526020600020905b8154815290600101906020018083116102cb57829003601f168201915b5050505050815260200160018201805461030190611ac5565b80601f016020809104026020016040519081016040528092919081815260200182805461032d90611ac5565b801561037a5780601f1061034f5761010080835404028352916020019161037a565b820191906000526020600020905b81548152906001019060200180831161035d57829003601f168201915b5050505050815250509050919050565b827f8579a6b3900bdd724e57deda631249ed743b60560c354567927bfea55caaa10f8383336040516103be93929190611b4f565b60405180910390a2505050565b600260008481526020019081526020016000206002016040518060c001604052808481526020018381526020014281526020013373ffffffffffffffffffffffffffffffffffffffff16815260200160001515815260200160405180602001604052806000815250815250908060018154018082558091505060019003906000526020600020906005020160009091909190915060008201518160000190816104749190611d40565b50602082015181600101908161048a9190611d40565b506040820151816002015560608201518160030160006101000a81548173ffffffffffffffffffffffffffffffffffffffff021916908373ffffffffffffffffffffffffffffffffffffffff16021790555060808201518160030160146101000a81548160ff02191690831515021790555060a08201518160040190816105119190611d40565b5050506001600260008581526020019081526020016000206002018054905061053a9190611e41565b837f12a70bcd32fd8fed8019363e2791de1d26a6346e55fe6a05a21b02c1673c8164848460405161056c929190611e75565b60405180910390a3505050565b7f000000000000000000000000000000000000000000000000000000000000000073ffffffffffffffffffffffffffffffffffffffff163373ffffffffffffffffffffffffffffffffffffffff1614610607576040517f08c379a00000000000000000000000000000000000000000000000000000000081526004016105fe90611ef8565b60405180910390fd5b6000600160008373ffffffffffffffffffffffffffffffffffffffff1673ffffffffffffffffffffffffffffffffffffffff168152602001908152602001600020600001805461065690611ac5565b80601f016020809104026020016040519081016040528092919081815260200182805461068290611ac5565b80156106cf5780601f106106a4576101008083540402835291602001916106cf565b820191906000526020600020905b8154815290600101906020018083116106b257829003601f168201915b505050505090506000600160008473ffffffffffffffffffffffffffffffffffffffff1673ffffffffffffffffffffffffffffffffffffffff168152602001908152602001600020600101805461072590611ac5565b80601f016020809104026020016040519081016040528092919081815260200182805461075190611ac5565b801561079e5780601f106107735761010080835404028352916020019161079e565b820191906000526020600020905b81548152906001019060200180831161078157829003601f168201915b50505050509050600160008473ffffffffffffffffffffffffffffffffffffffff1673ffffffffffffffffffffffffffffffffffffffff168152602001908152602001600020600080820160006107f591906112a8565b60018201600061080591906112a8565b5050806040516108159190611f54565b60405180910390208260405161082b9190611f54565b60405180910390207fb53e6474c48db961644847cc07ec4295b1f5b813d32ebb0fcea2d1d5c78dc80960405160405180910390a3505050565b600080600090505b60026000848152602001908152602001600020600201805490508110156108f657600015156002600085815260200190815260200160002060020182815481106108b9576108b8611f6b565b5b906000526020600020906005020160030160149054906101000a900460ff161515036108e95760009150506108fc565b808060010191505061086c565b50600190505b919050565b7f000000000000000000000000000000000000000000000000000000000000000073ffffffffffffffffffffffffffffffffffffffff163373ffffffffffffffffffffffffffffffffffffffff161461098f576040517f08c379a000000000000000000000000000000000000000000000000000000000815260040161098690611ef8565b60405180910390fd5b6000600160008573ffffffffffffffffffffffffffffffffffffffff1673ffffffffffffffffffffffffffffffffffffffff16815260200190815260200160002060000180546109de90611ac5565b905014610a20576040517f08c379a0000000000000000000000000000000000000000000000000000000008152600401610a1790611fe6565b60405180910390fd5b604051806040016040528083815260200182815250600160008573ffffffffffffffffffffffffffffffffffffffff1673ffffffffffffffffffffffffffffffffffffffff1681526020019081526020016000206000820151816000019081610a899190611d40565b506020820151816001019081610a9f9190611d40565b5090505081604051610ab19190611f54565b60405180910390207fa5f77e89964e20f4f99e3d2fd09c243db25ff1efb86062658ea332df0d76c49b60405160405180910390a2505050565b610af26112e8565b60026000838152602001908152602001600020604051806060016040529081600082018054610b2090611ac5565b80601f0160208091040260200160405190810160405280929190818152602001828054610b4c90611ac5565b8015610b995780601f10610b6e57610100808354040283529160200191610b99565b820191906000526020600020905b815481529060010190602001808311610b7c57829003601f168201915b505050505081526020016001820160009054906101000a900473ffffffffffffffffffffffffffffffffffffffff1673ffffffffffffffffffffffffffffffffffffffff1673ffffffffffffffffffffffffffffffffffffffff16815260200160028201805480602002602001604051908101604052809291908181526020016000905b82821015610e8057838290600052602060002090600502016040518060c0016040529081600082018054610c5090611ac5565b80601f0160208091040260200160405190810160405280929190818152602001828054610c7c90611ac5565b8015610cc95780601f10610c9e57610100808354040283529160200191610cc9565b820191906000526020600020905b815481529060010190602001808311610cac57829003601f168201915b50505050508152602001600182018054610ce290611ac5565b80601f0160208091040260200160405190810160405280929190818152602001828054610d0e90611ac5565b8015610d5b5780601f10610d3057610100808354040283529160200191610d5b565b820191906000526020600020905b815481529060010190602001808311610d3e57829003601f168201915b50505050508152602001600282015481526020016003820160009054906101000a900473ffffffffffffffffffffffffffffffffffffffff1673ffffffffffffffffffffffffffffffffffffffff1673ffffffffffffffffffffffffffffffffffffffff1681526020016003820160149054906101000a900460ff16151515158152602001600482018054610def90611ac5565b80601f0160208091040260200160405190810160405280929190818152602001828054610e1b90611ac5565b8015610e685780601f10610e3d57610100808354040283529160200191610e68565b820191906000526020600020905b815481529060010190602001808311610e4b57829003601f168201915b50505050508152505081526020019060010190610c1d565b50505050815250509050919050565b3373ffffffffffffffffffffffffffffffffffffffff16600260008581526020019081526020016000206002018381548110610ece57610ecd611f6b565b5b906000526020600020906005020160030160009054906101000a900473ffffffffffffffffffffffffffffffffffffffff1673ffffffffffffffffffffffffffffffffffffffff1614610f56576040517f08c379a0000000000000000000000000000000000000000000000000000000008152600401610f4d90612052565b60405180910390fd5b80600260008581526020019081526020016000206002018381548110610f7f57610f7e611f6b565b5b90600052602060002090600502016004019081610f9c9190611d40565b506001600260008581526020019081526020016000206002018381548110610fc757610fc6611f6b565b5b906000526020600020906005020160030160146101000a81548160ff02191690831515021790555081837f809c83b80e3b79a86331aed50b52aa04bad69249c39e4ad4a80e49dddf045631836040516110209190612072565b60405180910390a3505050565b60005481565b600080600160003373ffffffffffffffffffffffffffffffffffffffff1673ffffffffffffffffffffffffffffffffffffffff168152602001908152602001600020600001805461108390611ac5565b9050116110c5576040517f08c379a00000000000000000000000000000000000000000000000000000000081526004016110bc906120e0565b60405180910390fd5b81600260008054815260200190815260200160002060000190816110e99190611d40565b5033600260008054815260200190815260200160002060010160006101000a81548173ffffffffffffffffffffffffffffffffffffffff021916908373ffffffffffffffffffffffffffffffffffffffff16021790555060008081548092919061115290612100565b91905055506000600160003373ffffffffffffffffffffffffffffffffffffffff1673ffffffffffffffffffffffffffffffffffffffff16815260200190815260200160002060000180546111a690611ac5565b80601f01602080910402602001604051908101604052809291908181526020018280546111d290611ac5565b801561121f5780601f106111f45761010080835404028352916020019161121f565b820191906000526020600020905b81548152906001019060200180831161120257829003601f168201915b50505050509050806040516112349190611f54565b6040518091039020600160005461124b9190611e41565b7f5f77f12fa4f6d245bca5d5e398003a68d76339f4b268cfa459ec42ff4c4ede9960405160405180910390a360016000546112869190611e41565b915050919050565b604051806040016040528060608152602001606081525090565b5080546112b490611ac5565b6000825580601f106112c657506112e5565b601f0160209004906000526020600020908101906112e4919061131f565b5b50565b604051806060016040528060608152602001600073ffffffffffffffffffffffffffffffffffffffff168152602001606081525090565b5b80821115611338576000816000905550600101611320565b5090565b6000604051905090565b600080fd5b600080fd5b600073ffffffffffffffffffffffffffffffffffffffff82169050919050565b600061137b82611350565b9050919050565b61138b81611370565b811461139657600080fd5b50565b6000813590506113a881611382565b92915050565b6000602082840312156113c4576113c3611346565b5b60006113d284828501611399565b91505092915050565b600081519050919050565b600082825260208201905092915050565b60005b838110156114155780820151818401526020810190506113fa565b60008484015250505050565b6000601f19601f8301169050919050565b600061143d826113db565b61144781856113e6565b93506114578185602086016113f7565b61146081611421565b840191505092915050565b600060408301600083015184820360008601526114888282611432565b915050602083015184820360208601526114a28282611432565b9150508091505092915050565b600060208201905081810360008301526114c9818461146b565b905092915050565b6000819050919050565b6114e4816114d1565b81146114ef57600080fd5b50565b600081359050611501816114db565b92915050565b600080fd5b600080fd5b7f4e487b7100000000000000000000000000000000000000000000000000000000600052604160045260246000fd5b61154982611421565b810181811067ffffffffffffffff8211171561156857611567611511565b5b80604052505050565b600061157b61133c565b90506115878282611540565b919050565b600067ffffffffffffffff8211156115a7576115a6611511565b5b6115b082611421565b9050602081019050919050565b82818337600083830152505050565b60006115df6115da8461158c565b611571565b9050828152602081018484840111156115fb576115fa61150c565b5b6116068482856115bd565b509392505050565b600082601f83011261162357611622611507565b5b81356116338482602086016115cc565b91505092915050565b60008060006060848603121561165557611654611346565b5b6000611663868287016114f2565b935050602084013567ffffffffffffffff8111156116845761168361134b565b5b6116908682870161160e565b925050604084013567ffffffffffffffff8111156116b1576116b061134b565b5b6116bd8682870161160e565b9150509250925092565b6000602082840312156116dd576116dc611346565b5b60006116eb848285016114f2565b91505092915050565b60008115159050919050565b611709816116f4565b82525050565b60006020820190506117246000830184611700565b92915050565b60008060006060848603121561174357611742611346565b5b600061175186828701611399565b935050602084013567ffffffffffffffff8111156117725761177161134b565b5b61177e8682870161160e565b925050604084013567ffffffffffffffff81111561179f5761179e61134b565b5b6117ab8682870161160e565b9150509250925092565b6117be81611370565b82525050565b600081519050919050565b600082825260208201905092915050565b6000819050602082019050919050565b6117f9816114d1565b82525050565b611808816116f4565b82525050565b600060c083016000830151848203600086015261182b8282611432565b915050602083015184820360208601526118458282611432565b915050604083015161185a60408601826117f0565b50606083015161186d60608601826117b5565b50608083015161188060808601826117ff565b5060a083015184820360a08601526118988282611432565b9150508091505092915050565b60006118b1838361180e565b905092915050565b6000602082019050919050565b60006118d1826117c4565b6118db81856117cf565b9350836020820285016118ed856117e0565b8060005b85811015611929578484038952815161190a85826118a5565b9450611915836118b9565b925060208a019950506001810190506118f1565b50829750879550505050505092915050565b600060608301600083015184820360008601526119588282611432565b915050602083015161196d60208601826117b5565b506040830151848203604086015261198582826118c6565b9150508091505092915050565b600060208201905081810360008301526119ac818461193b565b905092915050565b6000806000606084860312156119cd576119cc611346565b5b60006119db868287016114f2565b93505060206119ec868287016114f2565b925050604084013567ffffffffffffffff811115611a0d57611a0c61134b565b5b611a198682870161160e565b9150509250925092565b611a2c816114d1565b82525050565b6000602082019050611a476000830184611a23565b92915050565b600060208284031215611a6357611a62611346565b5b600082013567ffffffffffffffff811115611a8157611a8061134b565b5b611a8d8482850161160e565b91505092915050565b7f4e487b7100000000000000000000000000000000000000000000000000000000600052602260045260246000fd5b60006002820490506001821680611add57607f821691505b602082108103611af057611aef611a96565b5b50919050565b600082825260208201905092915050565b6000611b12826113db565b611b1c8185611af6565b9350611b2c8185602086016113f7565b611b3581611421565b840191505092915050565b611b4981611370565b82525050565b60006060820190508181036000830152611b698186611b07565b90508181036020830152611b7d8185611b07565b9050611b8c6040830184611b40565b949350505050565b60008190508160005260206000209050919050565b60006020601f8301049050919050565b600082821b905092915050565b600060088302611bf67fffffffffffffffffffffffffffffffffffffffffffffffffffffffffffffffff82611bb9565b611c008683611bb9565b95508019841693508086168417925050509392505050565b6000819050919050565b6000611c3d611c38611c33846114d1565b611c18565b6114d1565b9050919050565b6000819050919050565b611c5783611c22565b611c6b611c6382611c44565b848454611bc6565b825550505050565b600090565b611c80611c73565b611c8b818484611c4e565b505050565b5b81811015611caf57611ca4600082611c78565b600181019050611c91565b5050565b601f821115611cf457611cc581611b94565b611cce84611ba9565b81016020851015611cdd578190505b611cf1611ce985611ba9565b830182611c90565b50505b505050565b600082821c905092915050565b6000611d1760001984600802611cf9565b1980831691505092915050565b6000611d308383611d06565b9150826002028217905092915050565b611d49826113db565b67ffffffffffffffff811115611d6257611d61611511565b5b611d6c8254611ac5565b611d77828285611cb3565b600060209050601f831160018114611daa5760008415611d98578287015190505b611da28582611d24565b865550611e0a565b601f198416611db886611b94565b60005b82811015611de057848901518255600182019150602085019450602081019050611dbb565b86831015611dfd5784890151611df9601f891682611d06565b8355505b6001600288020188555050505b505050505050565b7f4e487b7100000000000000000000000000000000000000000000000000000000600052601160045260246000fd5b6000611e4c826114d1565b9150611e57836114d1565b9250828203905081811115611e6f57611e6e611e12565b5b92915050565b60006040820190508181036000830152611e8f8185611b07565b90508181036020830152611ea38184611b07565b90509392505050565b7f4f6e6c7920436f6e7472616374204f776e657220616c6c6f7765640000000000600082015250565b6000611ee2601b83611af6565b9150611eed82611eac565b602082019050919050565b60006020820190508181036000830152611f1181611ed5565b9050919050565b600081905092915050565b6000611f2e826113db565b611f388185611f18565b9350611f488185602086016113f7565b80840191505092915050565b6000611f608284611f23565b915081905092915050565b7f4e487b7100000000000000000000000000000000000000000000000000000000600052603260045260246000fd5b7f4d616e75666163747572657220616c7265616479207265676973746572656400600082015250565b6000611fd0601f83611af6565b9150611fdb82611f9a565b602082019050919050565b60006020820190508181036000830152611fff81611fc3565b9050919050565b7f4d757374206265206f776e657200000000000000000000000000000000000000600082015250565b600061203c600d83611af6565b915061204782612006565b602082019050919050565b6000602082019050818103600083015261206b8161202f565b9050919050565b6000602082019050818103600083015261208c8184611b07565b905092915050565b7f4d616e756661637475726572206e6f7420726567697374657265640000000000600082015250565b60006120ca601b83611af6565b91506120d582612094565b602082019050919050565b600060208201905081810360008301526120f9816120bd565b9050919050565b600061210b826114d1565b91507fffffffffffffffffffffffffffffffffffffffffffffffffffffffffffffffff820361213d5761213c611e12565b5b60018201905091905056fea26469706673582212200391ccb2d74839eb37ae00615a632da2e7a9b0123bbfe742ca1a82449ac4a2cd64736f6c63430008180033",
  "linkReferences": {},
  "deployedLinkReferences": {}
}