{
   "_format": "hh-sol-artifact-1",
   "contractName": "DrugLedger",
   "sourceName": "contracts/Lock.sol",
   "abi": [
      {
         "inputs": [],
         "stateMutability": "nonpayable",
         "type": "constructor"
      },
      {
         "anonymous": false,
         "inputs": [
            {
               "indexed": true,
               "internalType": "uint256",
               "name": "drugId",
               "type": "uint256"
            },
            {
               "indexed": true,
               "internalType": "uint256",
               "name": "issueId",
               "type": "uint256"
            },
            {
               "indexed": false,
               "internalType": "string",
               "name": "reason",
               "type": "string"
            }
         ],
         "name": "IssueClosed",
         "type": "event"
      },
      {
         "anonymous": false,
         "inputs": [
            {
               "indexed": true,
               "internalType": "uint256",
               "name": "drugId",
               "type": "uint256"
            },
            {
               "indexed": true,
               "internalType": "uint256",
               "name": "issueId",
               "type": "uint256"
            },
            {
               "indexed": false,
               "internalType": "string",
               "name": "name",
               "type": "string"
            },
            {
               "indexed": false,
               "internalType": "string",
               "name": "description",
               "type": "string"
            }
         ],
         "name": "IssueOpened",
         "type": "event"
      },
      {
         "anonymous": false,
         "inputs": [
            {
               "indexed": true,
               "internalType": "uint256",
               "name": "drugId",
               "type": "uint256"
            },
            {
               "indexed": false,
               "internalType": "string",
               "name": "entity",
               "type": "string"
            },
            {
               "indexed": false,
               "internalType": "string",
               "name": "action",
               "type": "string"
            },
            {
               "indexed": false,
               "internalType": "address",
               "name": "from",
               "type": "address"
            }
         ],
         "name": "Log",
         "type": "event"
      },
      {
         "anonymous": false,
         "inputs": [
            {
               "indexed": true,
               "internalType": "string",
               "name": "name",
               "type": "string"
            },
            {
               "indexed": true,
               "internalType": "string",
               "name": "license",
               "type": "string"
            }
         ],
         "name": "ManufacturerRevoked",
         "type": "event"
      },
      {
         "anonymous": false,
         "inputs": [
            {
               "indexed": true,
               "internalType": "string",
               "name": "name",
               "type": "string"
            }
         ],
         "name": "RegisteredManufacturer",
         "type": "event"
      },
      {
         "inputs": [
            {
               "internalType": "uint256",
               "name": "_drugId",
               "type": "uint256"
            },
            {
               "internalType": "string",
               "name": "_entity",
               "type": "string"
            },
            {
               "internalType": "string",
               "name": "_action",
               "type": "string"
            }
         ],
         "name": "addLog",
         "outputs": [],
         "stateMutability": "nonpayable",
         "type": "function"
      },
      {
         "inputs": [
            {
               "internalType": "uint256",
               "name": "_drugId",
               "type": "uint256"
            },
            {
               "internalType": "uint256",
               "name": "_issueId",
               "type": "uint256"
            },
            {
               "internalType": "string",
               "name": "_reason",
               "type": "string"
            }
         ],
         "name": "closeIssue",
         "outputs": [],
         "stateMutability": "nonpayable",
         "type": "function"
      },
      {
         "inputs": [
            {
               "internalType": "address",
               "name": "addr",
               "type": "address"
            }
         ],
         "name": "getManufacturer",
         "outputs": [
            {
               "components": [
                  {
                     "internalType": "string",
                     "name": "name",
                     "type": "string"
                  },
                  {
                     "internalType": "string",
                     "name": "license",
                     "type": "string"
                  }
               ],
               "internalType": "struct Manufacturer",
               "name": "",
               "type": "tuple"
            }
         ],
         "stateMutability": "view",
         "type": "function"
      },
      {
         "inputs": [],
         "name": "id",
         "outputs": [
            {
               "internalType": "uint256",
               "name": "",
               "type": "uint256"
            }
         ],
         "stateMutability": "view",
         "type": "function"
      },
      {
         "inputs": [
            {
               "internalType": "uint256",
               "name": "_drugId",
               "type": "uint256"
            },
            {
               "internalType": "string",
               "name": "_name",
               "type": "string"
            },
            {
               "internalType": "string",
               "name": "_description",
               "type": "string"
            }
         ],
         "name": "openIssue",
         "outputs": [],
         "stateMutability": "nonpayable",
         "type": "function"
      },
      {
         "inputs": [
            {
               "internalType": "address",
               "name": "_addr",
               "type": "address"
            },
            {
               "internalType": "string",
               "name": "_name",
               "type": "string"
            },
            {
               "internalType": "string",
               "name": "_license",
               "type": "string"
            }
         ],
         "name": "register",
         "outputs": [],
         "stateMutability": "nonpayable",
         "type": "function"
      },
      {
         "inputs": [
            {
               "internalType": "string",
               "name": "cid",
               "type": "string"
            }
         ],
         "name": "registerDrug",
         "outputs": [
            {
               "internalType": "uint256",
               "name": "",
               "type": "uint256"
            }
         ],
         "stateMutability": "nonpayable",
         "type": "function"
      },
      {
         "inputs": [
            {
               "internalType": "uint256",
               "name": "_id",
               "type": "uint256"
            }
         ],
         "name": "retrieve",
         "outputs": [
            {
               "components": [
                  {
                     "internalType": "string",
                     "name": "cid",
                     "type": "string"
                  },
                  {
                     "internalType": "address",
                     "name": "manufacturer",
                     "type": "address"
                  },
                  {
                     "components": [
                        {
                           "internalType": "string",
                           "name": "name",
                           "type": "string"
                        },
                        {
                           "internalType": "string",
                           "name": "description",
                           "type": "string"
                        },
                        {
                           "internalType": "uint256",
                           "name": "date",
                           "type": "uint256"
                        },
                        {
                           "internalType": "address",
                           "name": "owner",
                           "type": "address"
                        },
                        {
                           "internalType": "bool",
                           "name": "resolved",
                           "type": "bool"
                        },
                        {
                           "internalType": "string",
                           "name": "reason",
                           "type": "string"
                        }
                     ],
                     "internalType": "struct Issue[]",
                     "name": "issues",
                     "type": "tuple[]"
                  }
               ],
               "internalType": "struct Drug",
               "name": "",
               "type": "tuple"
            }
         ],
         "stateMutability": "view",
         "type": "function"
      },
      {
         "inputs": [
            {
               "internalType": "address",
               "name": "_addr",
               "type": "address"
            }
         ],
         "name": "revoke",
         "outputs": [],
         "stateMutability": "nonpayable",
         "type": "function"
      },
      {
         "inputs": [
            {
               "internalType": "uint256",
               "name": "_drugId",
               "type": "uint256"
            }
         ],
         "name": "verify",
         "outputs": [
            {
               "internalType": "bool",
               "name": "",
               "type": "bool"
            }
         ],
         "stateMutability": "view",
         "type": "function"
      }
   ],
   "bytecode": "0x60a060405234801561001057600080fd5b503373ffffffffffffffffffffffffffffffffffffffff1660808173ffffffffffffffffffffffffffffffffffffffff168152505060805161205d6100676000396000818161057b0152610903015261205d6000f3fe608060405234801561001057600080fd5b506004361061009e5760003560e01c80638d59cc02116100665780638d59cc02146101575780638f88708b146101735780639e85f603146101a3578063af640d0f146101bf578063df24d347146101dd5761009e565b8063191bcef6146100a35780633227dab1146100d357806337834d5c146100ef57806374a8f1031461010b5780638753367f14610127575b600080fd5b6100bd60048036038101906100b8919061128d565b61020d565b6040516100ca919061138e565b60405180910390f35b6100ed60048036038101906100e8919061151b565b61038a565b005b6101096004803603810190610104919061151b565b6103cb565b005b6101256004803603810190610120919061128d565b610579565b005b610141600480360381019061013c91906115a6565b610864565b60405161014e91906115ee565b60405180910390f35b610171600480360381019061016c9190611609565b610901565b005b61018d600480360381019061018891906115a6565b610aea565b60405161019a9190611871565b60405180910390f35b6101bd60048036038101906101b89190611893565b610e8f565b005b6101c761102d565b6040516101d49190611911565b60405180910390f35b6101f760048036038101906101f2919061192c565b611033565b6040516102049190611911565b60405180910390f35b61021561116d565b600160008373ffffffffffffffffffffffffffffffffffffffff1673ffffffffffffffffffffffffffffffffffffffff16815260200190815260200160002060405180604001604052908160008201805461026f906119a4565b80601f016020809104026020016040519081016040528092919081815260200182805461029b906119a4565b80156102e85780601f106102bd576101008083540402835291602001916102e8565b820191906000526020600020905b8154815290600101906020018083116102cb57829003601f168201915b50505050508152602001600182018054610301906119a4565b80601f016020809104026020016040519081016040528092919081815260200182805461032d906119a4565b801561037a5780601f1061034f5761010080835404028352916020019161037a565b820191906000526020600020905b81548152906001019060200180831161035d57829003601f168201915b5050505050815250509050919050565b827f8579a6b3900bdd724e57deda631249ed743b60560c354567927bfea55caaa10f8383336040516103be93929190611a2e565b60405180910390a2505050565b600260008481526020019081526020016000206002016040518060c001604052808481526020018381526020014281526020013373ffffffffffffffffffffffffffffffffffffffff16815260200160001515815260200160405180602001604052806000815250815250908060018154018082558091505060019003906000526020600020906005020160009091909190915060008201518160000190816104749190611c1f565b50602082015181600101908161048a9190611c1f565b506040820151816002015560608201518160030160006101000a81548173ffffffffffffffffffffffffffffffffffffffff021916908373ffffffffffffffffffffffffffffffffffffffff16021790555060808201518160030160146101000a81548160ff02191690831515021790555060a08201518160040190816105119190611c1f565b5050506001600260008581526020019081526020016000206002018054905061053a9190611d20565b837f12a70bcd32fd8fed8019363e2791de1d26a6346e55fe6a05a21b02c1673c8164848460405161056c929190611d54565b60405180910390a3505050565b7f000000000000000000000000000000000000000000000000000000000000000073ffffffffffffffffffffffffffffffffffffffff163373ffffffffffffffffffffffffffffffffffffffff1614610607576040517f08c379a00000000000000000000000000000000000000000000000000000000081526004016105fe90611dd7565b60405180910390fd5b6000600160008373ffffffffffffffffffffffffffffffffffffffff1673ffffffffffffffffffffffffffffffffffffffff1681526020019081526020016000206000018054610656906119a4565b80601f0160208091040260200160405190810160405280929190818152602001828054610682906119a4565b80156106cf5780601f106106a4576101008083540402835291602001916106cf565b820191906000526020600020905b8154815290600101906020018083116106b257829003601f168201915b505050505090506000600160008473ffffffffffffffffffffffffffffffffffffffff1673ffffffffffffffffffffffffffffffffffffffff1681526020019081526020016000206001018054610725906119a4565b80601f0160208091040260200160405190810160405280929190818152602001828054610751906119a4565b801561079e5780601f106107735761010080835404028352916020019161079e565b820191906000526020600020905b81548152906001019060200180831161078157829003601f168201915b50505050509050600160008473ffffffffffffffffffffffffffffffffffffffff1673ffffffffffffffffffffffffffffffffffffffff168152602001908152602001600020600080820160006107f59190611187565b6001820160006108059190611187565b5050806040516108159190611e33565b60405180910390208260405161082b9190611e33565b60405180910390207fb53e6474c48db961644847cc07ec4295b1f5b813d32ebb0fcea2d1d5c78dc80960405160405180910390a3505050565b600080600090505b60026000848152602001908152602001600020600201805490508110156108f657600015156002600085815260200190815260200160002060020182815481106108b9576108b8611e4a565b5b906000526020600020906005020160030160149054906101000a900460ff161515036108e95760009150506108fc565b808060010191505061086c565b50600190505b919050565b7f000000000000000000000000000000000000000000000000000000000000000073ffffffffffffffffffffffffffffffffffffffff163373ffffffffffffffffffffffffffffffffffffffff161461098f576040517f08c379a000000000000000000000000000000000000000000000000000000000815260040161098690611dd7565b60405180910390fd5b6000600160008573ffffffffffffffffffffffffffffffffffffffff1673ffffffffffffffffffffffffffffffffffffffff16815260200190815260200160002060000180546109de906119a4565b905014610a20576040517f08c379a0000000000000000000000000000000000000000000000000000000008152600401610a1790611ec5565b60405180910390fd5b604051806040016040528083815260200182815250600160008573ffffffffffffffffffffffffffffffffffffffff1673ffffffffffffffffffffffffffffffffffffffff1681526020019081526020016000206000820151816000019081610a899190611c1f565b506020820151816001019081610a9f9190611c1f565b5090505081604051610ab19190611e33565b60405180910390207fa5f77e89964e20f4f99e3d2fd09c243db25ff1efb86062658ea332df0d76c49b60405160405180910390a2505050565b610af26111c7565b60026000838152602001908152602001600020604051806060016040529081600082018054610b20906119a4565b80601f0160208091040260200160405190810160405280929190818152602001828054610b4c906119a4565b8015610b995780601f10610b6e57610100808354040283529160200191610b99565b820191906000526020600020905b815481529060010190602001808311610b7c57829003601f168201915b505050505081526020016001820160009054906101000a900473ffffffffffffffffffffffffffffffffffffffff1673ffffffffffffffffffffffffffffffffffffffff1673ffffffffffffffffffffffffffffffffffffffff16815260200160028201805480602002602001604051908101604052809291908181526020016000905b82821015610e8057838290600052602060002090600502016040518060c0016040529081600082018054610c50906119a4565b80601f0160208091040260200160405190810160405280929190818152602001828054610c7c906119a4565b8015610cc95780601f10610c9e57610100808354040283529160200191610cc9565b820191906000526020600020905b815481529060010190602001808311610cac57829003601f168201915b50505050508152602001600182018054610ce2906119a4565b80601f0160208091040260200160405190810160405280929190818152602001828054610d0e906119a4565b8015610d5b5780601f10610d3057610100808354040283529160200191610d5b565b820191906000526020600020905b815481529060010190602001808311610d3e57829003601f168201915b50505050508152602001600282015481526020016003820160009054906101000a900473ffffffffffffffffffffffffffffffffffffffff1673ffffffffffffffffffffffffffffffffffffffff1673ffffffffffffffffffffffffffffffffffffffff1681526020016003820160149054906101000a900460ff16151515158152602001600482018054610def906119a4565b80601f0160208091040260200160405190810160405280929190818152602001828054610e1b906119a4565b8015610e685780601f10610e3d57610100808354040283529160200191610e68565b820191906000526020600020905b815481529060010190602001808311610e4b57829003601f168201915b50505050508152505081526020019060010190610c1d565b50505050815250509050919050565b3373ffffffffffffffffffffffffffffffffffffffff16600260008581526020019081526020016000206002018381548110610ece57610ecd611e4a565b5b906000526020600020906005020160030160009054906101000a900473ffffffffffffffffffffffffffffffffffffffff1673ffffffffffffffffffffffffffffffffffffffff1614610f56576040517f08c379a0000000000000000000000000000000000000000000000000000000008152600401610f4d90611f31565b60405180910390fd5b80600260008581526020019081526020016000206002018381548110610f7f57610f7e611e4a565b5b90600052602060002090600502016004019081610f9c9190611c1f565b506001600260008581526020019081526020016000206002018381548110610fc757610fc6611e4a565b5b906000526020600020906005020160030160146101000a81548160ff02191690831515021790555081837f809c83b80e3b79a86331aed50b52aa04bad69249c39e4ad4a80e49dddf045631836040516110209190611f51565b60405180910390a3505050565b60005481565b600080600160003373ffffffffffffffffffffffffffffffffffffffff1673ffffffffffffffffffffffffffffffffffffffff1681526020019081526020016000206000018054611083906119a4565b9050116110c5576040517f08c379a00000000000000000000000000000000000000000000000000000000081526004016110bc90611fbf565b60405180910390fd5b81600260008054815260200190815260200160002060000190816110e99190611c1f565b5033600260008054815260200190815260200160002060010160006101000a81548173ffffffffffffffffffffffffffffffffffffffff021916908373ffffffffffffffffffffffffffffffffffffffff16021790555060008081548092919061115290611fdf565b919050555060016000546111669190611d20565b9050919050565b604051806040016040528060608152602001606081525090565b508054611193906119a4565b6000825580601f106111a557506111c4565b601f0160209004906000526020600020908101906111c391906111fe565b5b50565b604051806060016040528060608152602001600073ffffffffffffffffffffffffffffffffffffffff168152602001606081525090565b5b808211156112175760008160009055506001016111ff565b5090565b6000604051905090565b600080fd5b600080fd5b600073ffffffffffffffffffffffffffffffffffffffff82169050919050565b600061125a8261122f565b9050919050565b61126a8161124f565b811461127557600080fd5b50565b60008135905061128781611261565b92915050565b6000602082840312156112a3576112a2611225565b5b60006112b184828501611278565b91505092915050565b600081519050919050565b600082825260208201905092915050565b60005b838110156112f45780820151818401526020810190506112d9565b60008484015250505050565b6000601f19601f8301169050919050565b600061131c826112ba565b61132681856112c5565b93506113368185602086016112d6565b61133f81611300565b840191505092915050565b600060408301600083015184820360008601526113678282611311565b915050602083015184820360208601526113818282611311565b9150508091505092915050565b600060208201905081810360008301526113a8818461134a565b905092915050565b6000819050919050565b6113c3816113b0565b81146113ce57600080fd5b50565b6000813590506113e0816113ba565b92915050565b600080fd5b600080fd5b7f4e487b7100000000000000000000000000000000000000000000000000000000600052604160045260246000fd5b61142882611300565b810181811067ffffffffffffffff82111715611447576114466113f0565b5b80604052505050565b600061145a61121b565b9050611466828261141f565b919050565b600067ffffffffffffffff821115611486576114856113f0565b5b61148f82611300565b9050602081019050919050565b82818337600083830152505050565b60006114be6114b98461146b565b611450565b9050828152602081018484840111156114da576114d96113eb565b5b6114e584828561149c565b509392505050565b600082601f830112611502576115016113e6565b5b81356115128482602086016114ab565b91505092915050565b60008060006060848603121561153457611533611225565b5b6000611542868287016113d1565b935050602084013567ffffffffffffffff8111156115635761156261122a565b5b61156f868287016114ed565b925050604084013567ffffffffffffffff8111156115905761158f61122a565b5b61159c868287016114ed565b9150509250925092565b6000602082840312156115bc576115bb611225565b5b60006115ca848285016113d1565b91505092915050565b60008115159050919050565b6115e8816115d3565b82525050565b600060208201905061160360008301846115df565b92915050565b60008060006060848603121561162257611621611225565b5b600061163086828701611278565b935050602084013567ffffffffffffffff8111156116515761165061122a565b5b61165d868287016114ed565b925050604084013567ffffffffffffffff81111561167e5761167d61122a565b5b61168a868287016114ed565b9150509250925092565b61169d8161124f565b82525050565b600081519050919050565b600082825260208201905092915050565b6000819050602082019050919050565b6116d8816113b0565b82525050565b6116e7816115d3565b82525050565b600060c083016000830151848203600086015261170a8282611311565b915050602083015184820360208601526117248282611311565b915050604083015161173960408601826116cf565b50606083015161174c6060860182611694565b50608083015161175f60808601826116de565b5060a083015184820360a08601526117778282611311565b9150508091505092915050565b600061179083836116ed565b905092915050565b6000602082019050919050565b60006117b0826116a3565b6117ba81856116ae565b9350836020820285016117cc856116bf565b8060005b8581101561180857848403895281516117e98582611784565b94506117f483611798565b925060208a019950506001810190506117d0565b50829750879550505050505092915050565b600060608301600083015184820360008601526118378282611311565b915050602083015161184c6020860182611694565b506040830151848203604086015261186482826117a5565b9150508091505092915050565b6000602082019050818103600083015261188b818461181a565b905092915050565b6000806000606084860312156118ac576118ab611225565b5b60006118ba868287016113d1565b93505060206118cb868287016113d1565b925050604084013567ffffffffffffffff8111156118ec576118eb61122a565b5b6118f8868287016114ed565b9150509250925092565b61190b816113b0565b82525050565b60006020820190506119266000830184611902565b92915050565b60006020828403121561194257611941611225565b5b600082013567ffffffffffffffff8111156119605761195f61122a565b5b61196c848285016114ed565b91505092915050565b7f4e487b7100000000000000000000000000000000000000000000000000000000600052602260045260246000fd5b600060028204905060018216806119bc57607f821691505b6020821081036119cf576119ce611975565b5b50919050565b600082825260208201905092915050565b60006119f1826112ba565b6119fb81856119d5565b9350611a0b8185602086016112d6565b611a1481611300565b840191505092915050565b611a288161124f565b82525050565b60006060820190508181036000830152611a4881866119e6565b90508181036020830152611a5c81856119e6565b9050611a6b6040830184611a1f565b949350505050565b60008190508160005260206000209050919050565b60006020601f8301049050919050565b600082821b905092915050565b600060088302611ad57fffffffffffffffffffffffffffffffffffffffffffffffffffffffffffffffff82611a98565b611adf8683611a98565b95508019841693508086168417925050509392505050565b6000819050919050565b6000611b1c611b17611b12846113b0565b611af7565b6113b0565b9050919050565b6000819050919050565b611b3683611b01565b611b4a611b4282611b23565b848454611aa5565b825550505050565b600090565b611b5f611b52565b611b6a818484611b2d565b505050565b5b81811015611b8e57611b83600082611b57565b600181019050611b70565b5050565b601f821115611bd357611ba481611a73565b611bad84611a88565b81016020851015611bbc578190505b611bd0611bc885611a88565b830182611b6f565b50505b505050565b600082821c905092915050565b6000611bf660001984600802611bd8565b1980831691505092915050565b6000611c0f8383611be5565b9150826002028217905092915050565b611c28826112ba565b67ffffffffffffffff811115611c4157611c406113f0565b5b611c4b82546119a4565b611c56828285611b92565b600060209050601f831160018114611c895760008415611c77578287015190505b611c818582611c03565b865550611ce9565b601f198416611c9786611a73565b60005b82811015611cbf57848901518255600182019150602085019450602081019050611c9a565b86831015611cdc5784890151611cd8601f891682611be5565b8355505b6001600288020188555050505b505050505050565b7f4e487b7100000000000000000000000000000000000000000000000000000000600052601160045260246000fd5b6000611d2b826113b0565b9150611d36836113b0565b9250828203905081811115611d4e57611d4d611cf1565b5b92915050565b60006040820190508181036000830152611d6e81856119e6565b90508181036020830152611d8281846119e6565b90509392505050565b7f4f6e6c7920436f6e7472616374204f776e657220616c6c6f7765640000000000600082015250565b6000611dc1601b836119d5565b9150611dcc82611d8b565b602082019050919050565b60006020820190508181036000830152611df081611db4565b9050919050565b600081905092915050565b6000611e0d826112ba565b611e178185611df7565b9350611e278185602086016112d6565b80840191505092915050565b6000611e3f8284611e02565b915081905092915050565b7f4e487b7100000000000000000000000000000000000000000000000000000000600052603260045260246000fd5b7f4d616e75666163747572657220616c7265616479207265676973746572656400600082015250565b6000611eaf601f836119d5565b9150611eba82611e79565b602082019050919050565b60006020820190508181036000830152611ede81611ea2565b9050919050565b7f4d757374206265206f776e657200000000000000000000000000000000000000600082015250565b6000611f1b600d836119d5565b9150611f2682611ee5565b602082019050919050565b60006020820190508181036000830152611f4a81611f0e565b9050919050565b60006020820190508181036000830152611f6b81846119e6565b905092915050565b7f4d616e756661637475726572206e6f7420726567697374657265640000000000600082015250565b6000611fa9601b836119d5565b9150611fb482611f73565b602082019050919050565b60006020820190508181036000830152611fd881611f9c565b9050919050565b6000611fea826113b0565b91507fffffffffffffffffffffffffffffffffffffffffffffffffffffffffffffffff820361201c5761201b611cf1565b5b60018201905091905056fea26469706673582212200d5869b8290e65cfb3eff5984fb38e1877aa6024d836942e78b152d2024b17a264736f6c63430008180033",
   "linkReferences": {},
   "deployedLinkReferences": {}
}